:020000040800F2
:10000000005000207D1D0008350500083B05000854
:1000100041050008470500084D05000800000000E4
:100020000000000000000000000000005305000870
:100030005F050008000000006B0500087705000858
:10004000C51D0008C51D0008C51D0008C51D000808
:10005000C51D0008C51D0008C51D0008C51D0008F8
:10006000C51D0008C51D0008C51D0008C51D0008E8
:10007000C51D0008C51D0008C51D0008C51D0008D8
:10008000C51D0008C51D0008C51D0008C51D0008C8
:10009000C51D0008C51D0008C51D0008C51D0008B8
:1000A000C51D0008C51D0008C51D0008C51D0008A8
:1000B000C51D0008C51D0008C51D0008C51D000898
:1000C000C51D0008C51D0008C51D0008C51D000888
:1000D000C51D000885050008C51D0008C51D0008D0
:1000E000C51D0008C51D0008C51D00080000000052
:1000F0000000000000000000000000000000000000
:0C01000000000000000000005FF808F1A3
:10010C0010B5054C237833B9044B13B10448AFF345
:10011C0000800123237010BD0C00002000000000A3
:10012C00201E000808B5034B1BB103490348AFF36D
:10013C00008008BD0000000010000020201E0008F8
:10014C0080B584B000AF03460A46FB711346BB7101
:10015C0000224FF400711B4800F0BEFDFB79012B0F
:10016C0006D101224FF40071164800F0B5FD05E0F0
:10017C0000224FF40071134800F0AEFD0023FB6029
:10018C000AE04FF480610F4800F0BEFD032000F040
:10019C0065FAFB680133FB60BB79DA00FB689A42B5
:1001AC00EFDA00224FF48061064800F095FD002242
:1001BC004FF48071034800F08FFD00BF1037BD462F
:1001CC0080BD00BF0008014080B500AF00F0E4F92D
:1001DC0000F032F800F0A2F800F074F8154B012290
:1001EC001A70144BC8225A70124B1A78114B5B7848
:1001FC0019461046FFF7A4FF0E4B00225A7040F62A
:10020C00B83000F02BFA0B4B00221A70094BC822A5
:10021C005A70084B1A78074B5B7819461046FFF753
:10022C008FFF044B00225A7040F6B83000F016FADB
:10023C00D4E700BF6C00002080B590B000AF07F190
:10024C00180328220021184601F0DCFD3B1D00227A
:10025C001A605A609A60DA601A610123BB614FF42C
:10026C008033FB6100233B620123BB6202237B636F
:10027C004FF48033BB634FF4E013FB6307F11803B7
:10028C00184600F05BFD0346002B01D000F0B4F8DB
:10029C000F237B600223BB600023FB604FF4806361
:1002AC003B6100237B613B1D0221184600F0C6FF19
:1002BC000346002B01D000F09FF800BF4037BD462D
:1002CC0080BD000080B500AF124B134A1A60114B71
:1002DC004FF416525A600F4B4FF480529A600D4BEC
:1002EC000022DA600B4B4FF480621A61094B0C222E
:1002FC005A61084B00229A61064B0022DA610548CC
:10030C0001F038F90346002B01D000F075F800BF5E
:10031C0080BD00BF280000200038014080B588B0A7
:10032C0000AF07F1100300221A605A609A60DA607D
:10033C002E4A2E4B9B6943F0100393612B4B9B6908
:10034C0003F01003FB60FB68284A284B9B6943F0C1
:10035C0020039361254B9B6903F02003BB60BB68B2
:10036C00224A224B9B6943F0040393611F4B9B6908
:10037C0003F004037B607B681C4A1C4B9B6943F0B5
:10038C0008039361194B9B6903F008033B603B68BE
:10039C0000224FF40051164800F09EFC00224FF44E
:1003AC00E061144800F098FC4FF400533B610123CA
:1003BC007B610023BB610223FB6107F1100319462B
:1003CC000B4800F02FFB4FF4E0633B6101237B6192
:1003DC000023BB610223FB6107F11003194605489A
:1003EC0000F020FB00BF2037BD4680BD001002404E
:1003FC00001001400008014080B400AF72B6FEE767
:10040C0080B485B000AF154A144B9B6943F00103CF
:10041C009361124B9B6903F00103BB60BB680F4AED
:10042C000E4BDB6943F08053D3610C4BDB6903F05B
:10043C0080537B607B680A4B5B68FB60FB6823F036
:10044C00E063FB60FB6843F08063FB60044AFB687D
:10045C00536000BF1437BD4680BC7047001002408B
:10046C000000014080B58AB000AF786007F114033A
:10047C0000221A605A609A60DA607B681B68264A10
:10048C00934245D1254A254B9B6943F480439361A4
:10049C00224B9B6903F480433B613B691F4A1F4B12
:1004AC009B6943F0080393611C4B9B6903F00803A1
:1004BC00FB60FB6840237B610223BB6103233B622F
:1004CC0007F114031946164800F0ACFA80237B613F
:1004DC000023BB610023FB6107F11403194610488C
:1004EC0000F0A0FA0F4B5B687B627B6A43F0E06321
:1004FC007B627B6A43F004037B620A4A7B6A53602B
:10050C0000220021252000F0A0F9252000F0B9F9E7
:10051C0000BF2837BD4680BD0038014000100240A6
:10052C00000C01400000014080B400AFFEE780B435
:10053C0000AFFEE780B400AFFEE780B400AFFEE78B
:10054C0080B400AFFEE780B400AF00BFBD4680BCF6
:10055C00704780B400AF00BFBD4680BC704780B40C
:10056C0000AF00BFBD4680BC704780B500AF00F047
:10057C0059F800BF80BD000080B500AF024801F003
:10058C0047F800BF80BD00BF2800002080B400AF3A
:10059C0000BFBD4680BC704780B500AF084A084B11
:1005AC001B6843F010031360032000F043F90F2085
:1005BC0000F008F8FFF724FF0023184680BD00BFA9
:1005CC000020024080B582B000AF7860124B1A68F0
:1005DC00124B1B7819464FF47A73B3FBF1F3B2FB51
:1005EC00F3F3184600F05BF90346002B01D001230E
:1005FC000EE07B680F2B0AD8002279684FF0FF3091
:10060C0000F023F9064A7B681360002300E0012305
:10061C0018460837BD4680BD0000002008000020A9
:10062C000400002080B400AF054B1B781A46054B24
:10063C001B681344034A136000BFBD4680BC70475F
:10064C00080000207000002080B400AF024B1B6833
:10065C001846BD4680BC70477000002080B584B041
:10066C0000AF7860FFF7F0FFB8607B68FB60FB6859
:10067C00B3F1FF3F05D0094B1B781A46FB681344B6
:10068C00FB6000BFFFF7E0FF0246BB68D21AFB68B5
:10069C009A42F7D300BF1037BD4680BD080000203A
:1006AC0080B485B000AF78607B6803F00703FB6013
:1006BC000C4BDB68BB60BA684FF6FF031340BB60A2
:1006CC00FB681A02BB68134343F0BF6343F4003367
:1006DC00BB60044ABB68D36000BF1437BD4680BC06
:1006EC00704700BF00ED00E080B400AF044BDB6846
:1006FC001B0A03F007031846BD4680BC704700BFB9
:10070C0000ED00E080B483B000AF0346FB7197F9B5
:10071C000730002B0BDB084997F907305B09FA7996
:10072C0002F01F02012000FA02F241F8232000BF60
:10073C000C37BD4680BC704700E100E080B483B04C
:10074C0000AF03463960FB7197F90730002B0ADBC9
:10075C000D4997F907303A68D2B21201D2B20B4464
:10076C0083F800230AE00949FB7903F00F03043BEB
:10077C003A68D2B21201D2B20B441A7600BF0C37CF
:10078C00BD4680BC704700BF00E100E000ED00E01A
:10079C0080B489B000AFF860B9607A60FB6803F090
:1007AC000703FB61FB69C3F10703042B28BF042378
:1007BC00BB61FB690433062B02D9FB69033B00E0E8
:1007CC0000237B610122BB6902FA03F35A1EBB684A
:1007DC001A407B699A4001217B6901FA03F3591E87
:1007EC007B680B40134318462437BD4680BC7047CA
:1007FC0080B582B000AF78607B68013BB3F1807F3D
:10080C0001D301230FE00A4A7B68013B53600F219F
:10081C004FF0FF30FFF792FF054B00229A60044B1C
:10082C0007221A60002318460837BD4680BD00BF5A
:10083C0010E000E080B582B000AF78607868FFF718
:10084C002FFF00BF0837BD4680BD80B586B000AF16
:10085C000346B9607A60FB7300237B61FFF744FFAA
:10086C0078617A68B9687869FFF792FF024697F960
:10087C000F3011461846FFF761FF00BF1837BD4611
:10088C0080BD80B582B000AF0346FB7197F907308D
:10089C001846FFF737FF00BF0837BD4680BD80B54F
:1008AC0082B000AF78607868FFF7A2FF0346184665
:1008BC000837BD4680BD80B485B000AF786000239A
:1008CC00FB737B6893F82130022B08D07B680422E1
:1008DC009A637B68002283F82020012320E07B6848
:1008EC001B687A681268126822F00E021A607B6824
:1008FC001B687A681268126822F001021A607B6821
:10090C00DB6B7A68126C012101FA02F25A607B6887
:10091C00012283F821207B68002283F82020FB7BB6
:10092C0018461437BD4680BC7047000080B584B0B3
:10093C0000AF78600023FB737B6893F82130022BA7
:10094C0005D07B6804229A630123FB7357E07B6814
:10095C001B687A681268126822F00E021A607B68B3
:10096C001B687A681268126822F001021A60264A23
:10097C007B681B681946254B99422ED07B681B68F7
:10098C001946234B994226D07B681B681946214B8C
:10099C0099421DD07B681B6819461F4B994214D095
:1009AC007B681B6819461D4B99420BD07B681B68F2
:1009BC0019461B4B994202D14FF480130EE04FF0B5
:1009CC0080730BE04FF4803308E04FF4805305E064
:1009DC004FF4807302E0102300E0012353607B6826
:1009EC00012283F821207B68002283F820207B6879
:1009FC005B6B002B03D07B685B6B78689847FB7B49
:100A0C0018461037BD4680BD000002400800024069
:100A1C001C000240300002404400024058000240DA
:100A2C006C00024080B48BB000AF7860396000235A
:100A3C007B6200233B6227E101227B6A02FA03F30B
:100A4C00FB613B681A68FB691340BB61BA69FB69BF
:100A5C009A4240F016813B685B68122B34D0122B03
:100A6C000DD8022B2BD0022B04D8002B31D0012B0C
:100A7C001CD048E0032B43D0112B1BD043E0894AF8
:100A8C00934226D0874A934206D8874A934220D075
:100A9C00864A93421DD036E0854A934219D0854A46
:100AAC00934216D0844A934213D02CE03B68DB6807
:100ABC003B6228E03B68DB6804333B6223E03B6825
:100ACC00DB6808333B621EE03B68DB680C333B623F
:100ADC0019E03B689B68002B02D104233B6212E0B7
:100AEC003B689B68012B05D108233B627B68FA6944
:100AFC001A6108E008233B627B68FA695A6102E0DC
:100B0C0000233B6200BFBB69FF2B01D87B6801E06F
:100B1C007B6804337B61BB69FF2B02D87B6A9B002B
:100B2C0002E07B6A083B9B003B617B691A680F21E2
:100B3C003B6901FA03F3DB431A40396A3B6901FA5A
:100B4C0003F31A437B691A603B685B6803F08053BC
:100B5C00002B00F09680594A584B9B6943F00103D7
:100B6C009361564B9B6903F00103BB60BB68544A0D
:100B7C007B6A9B08023352F82330FB607B6A03F0DC
:100B8C0003039B000F2202FA03F3DB43FA681340C2
:100B9C00FB607B684B4A934213D07B684A4A934272
:100BAC000DD07B68494A934207D07B68484A9342F0
:100BBC0001D1032306E0042304E0022302E0012315
:100BCC0000E000237A6A02F0030292009340FA6874
:100BDC001343FB603A497B6A9B080233FA6841F87D
:100BEC0023203B685B6803F48033002B06D0394923
:100BFC00384B1A68BB6913430B6006E03549354B1B
:100C0C001A68BB69DB4313400B603B685B6803F4F9
:100C1C000033002B06D02F492E4B5A68BB69134367
:100C2C004B6006E02B492B4B5A68BB69DB431340E6
:100C3C004B603B685B6803F48013002B06D025499E
:100C4C00244B9A68BB6913438B6006E02149214B06
:100C5C009A68BB69DB4313408B603B685B6803F4A9
:100C6C000013002B06D01B491A4BDA68BB691343DF
:100C7C00CB6006E01749174BDA68BB69DB431340BE
:100C8C00CB607B6A01337B623B681A687B6A22FA11
:100C9C0003F3002B7FF4D0AE00BF2C37BD4680BCD5
:100CAC00704700BF0000211000001110000012104E
:100CBC000000311000003210000022100010024021
:100CCC000000014000080140000C014000100140F0
:100CDC00001401400004014080B483B000AF786080
:100CEC000B467B8013467B707B78002B03D07A8875
:100CFC007B681A6103E07B881A047B681A6100BF69
:100D0C000C37BD4680BC704780B485B000AF7860AE
:100D1C000B467B807B68DB68FB607A88FB68134042
:100D2C001A04FB68D9437B880B401A437B681A6111
:100D3C0000BF1437BD4680BC7047000080B586B03C
:100D4C0000AF78607B68002B01D101236CE27B68DB
:100D5C001B6803F00103002B00F08780924B5B684B
:100D6C0003F00C03042B0CD08F4B5B6803F00C03CB
:100D7C00082B12D18C4B5B6803F48033B3F5803FA6
:100D8C000BD1894B1B6803F40033002B6CD07B68B0
:100D9C005B68002B68D1012346E27B685B68B3F586
:100DAC00803F06D1804A804B1B6843F4803313602C
:100DBC002EE07B685B68002B0CD17B4A7A4B1B685E
:100DCC0023F480331360784A774B1B6823F4802319
:100DDC0013601DE07B685B68B3F5A02F0CD1724AE1
:100DEC00714B1B6843F4802313606F4A6E4B1B6876
:100DFC0043F4803313600BE06B4A6B4B1B6823F49A
:100E0C0080331360684A684B1B6823F4802313609B
:100E1C007B685B68002B13D0FFF716FC386108E089
:100E2C00FFF712FC02463B69D31A642B01D903234A
:100E3C00FAE15D4B1B6803F40033002BF0D014E097
:100E4C00FFF702FC386108E0FFF7FEFB02463B6946
:100E5C00D31A642B01D90323E6E1534B1B6803F42B
:100E6C000033002BF0D100E000BF7B681B6803F05F
:100E7C000203002B63D04C4B5B6803F00C03002B7C
:100E8C000BD0494B5B6803F00C03082B1CD1464B71
:100E9C005B6803F48033002B16D1434B1B6803F0C3
:100EAC000203002B05D07B681B69012B01D00123A9
:100EBC00BAE13D493C4B1B6823F0F8027B685B6947
:100ECC00DB0013430B603AE07B681B69002B20D0DE
:100EDC00364B01221A60FFF7B7FB386108E0FFF7C9
:100EEC00B3FB02463B69D31A022B01D903239BE1C6
:100EFC002D4B1B6803F00203002BF0D02A492A4B20
:100F0C001B6823F0F8027B685B69DB0013430B6002
:100F1C0015E0264B00221A60FFF796FB386108E0BB
:100F2C00FFF792FB02463B69D31A022B01D903232C
:100F3C007AE11D4B1B6803F00203002BF0D17B6898
:100F4C001B6803F00803002B3AD07B689B69002BCD
:100F5C0019D0174B01221A60FFF776FB386108E0B5
:100F6C00FFF772FB02463B69D31A022B01D903230C
:100F7C005AE10D4B5B6A03F00203002BF0D0012009
:100F8C0000F0DAFA1CE00A4B00221A60FFF75CFB57
:100F9C0038610FE0FFF758FB02463B69D31A022B6E
:100FAC0008D9032340E100BF001002400000424278
:100FBC00800442429E4B5B6A03F00203002BE9D192
:100FCC007B681B6803F00403002B00F0A680002351
:100FDC00FB75974BDB6903F08053002B0DD1944AC2
:100FEC00934BDB6943F08053D361914BDB6903F086
:100FFC008053BB60BB680123FB758E4B1B6803F4ED
:10100C008073002B18D18B4A8A4B1B6843F4807376
:10101C001360FFF719FB386108E0FFF715FB024678
:10102C003B69D31A642B01D90323FDE0814B1B6868
:10103C0003F48073002BF0D07B68DB68012B06D1A6
:10104C007B4A7B4B1B6A43F0010313622DE07B68E8
:10105C00DB68002B0CD1764A754B1B6A23F001031D
:10106C001362734A724B1B6A23F0040313621CE075
:10107C007B68DB68052B0CD16D4A6D4B1B6A43F00A
:10108C00040313626A4A6A4B1B6A43F0010313623E
:10109C000BE0674A664B1B6A23F001031362644A38
:1010AC00634B1B6A23F0040313627B68DB68002B21
:1010BC0015D0FFF7C9FA38610AE0FFF7C5FA024606
:1010CC003B69D31A41F28832934201D90323ABE036
:1010DC00574B1B6A03F00203002BEED014E0FFF712
:1010EC00B3FA38610AE0FFF7AFFA02463B69D31A4C
:1010FC0041F28832934201D9032395E04C4B1B6A91
:10110C0003F00203002BEED1FB7D012B05D1484AE5
:10111C00474BDB6923F08053D3617B68DB69002B81
:10112C0000F08180424B5B6803F00C03082B61D00C
:10113C007B68DB69022B46D13F4B00221A60FFF71C
:10114C0083FA386108E0FFF77FFA02463B69D31A4D
:10115C00022B01D9032367E0354B1B6803F00073A6
:10116C00002BF0D17B681B6AB3F5803F08D1304966
:10117C002F4B5B6823F400327B689B6813434B60F6
:10118C002B482B4B5B6823F474127B68196A7B68C1
:10119C005B6A0B4313434360274B01221A60FFF732
:1011AC0053FA386108E0FFF74FFA02463B69D31A4D
:1011BC00022B01D9032337E01D4B1B6803F000738E
:1011CC00002BF0D02FE01C4B00221A60FFF73CFAEA
:1011DC00386108E0FFF738FA02463B69D31A022B54
:1011EC0001D9032320E0124B1B6803F00073002B82
:1011FC00F0D118E07B68DB69012B01D1012313E0EE
:10120C000B4B5B68FB60FB6803F480327B681B6AEA
:10121C009A4206D1FB6803F470127B685B6A9A42AF
:10122C0001D0012300E0002318461837BD4680BDCD
:10123C0000100240007000406000424280B584B053
:10124C0000AF786039607B68002B01D10123D0E0BE
:10125C006A4B1B6803F007023B689A4210D267493D
:10126C00664B1B6823F007023B6813430B60634B10
:10127C001B6803F007023B689A4201D00123B8E0D7
:10128C007B681B6803F00203002B20D07B681B6873
:10129C0003F00403002B05D0594A594B5B6843F407
:1012AC00E06353607B681B6803F00803002B05D0D8
:1012BC00534A534B5B6843F4605353605049504B53
:1012CC005B6823F0F0027B689B6813434B607B6880
:1012DC001B6803F00103002B40D07B685B68012B7B
:1012EC0007D1474B1B6803F40033002B15D10123A6
:1012FC007FE07B685B68022B07D1414B1B6803F0D6
:10130C000073002B09D1012373E03D4B1B6803F0E4
:10131C000203002B01D101236BE03949384B5B6888
:10132C0023F003027B685B6813434B60FFF78CF977
:10133C00F8600AE0FFF788F90246FB68D31A41F21D
:10134C008832934201D9032353E02D4B5B6803F0A1
:10135C000C027B685B689B009A42EBD1274B1B68A5
:10136C0003F007023B689A4210D92449234B1B68AF
:10137C0023F007023B6813430B60204B1B6803F000
:10138C0007023B689A4201D0012332E07B681B685C
:10139C0003F00403002B08D01949194B5B6823F4A4
:1013AC00E0627B68DB6813434B607B681B6803F06F
:1013BC000803002B09D01249114B5B6823F46052CF
:1013CC007B681B69DB0013434B6000F021F801467E
:1013DC000B4B5B681B0903F00F030A4AD35C21FA21
:1013EC0003F3094A1360094B1B681846FFF7EAF828
:1013FC00002318461037BD4680BD00BF00200240B8
:10140C00001002404C1E00080000002004000020C8
:10141C0090B48AB000AF2A4B3C1D0FCB84E80F0070
:10142C00284B1B883B800023FB610023BB610023FE
:10143C007B6200237B6100233B62234B5B68FB6177
:10144C00FB6903F00C03042B02D0082B03D02DE016
:10145C001E4B3B622DE0FB699B0C03F00F0307F165
:10146C002802134413F8243C7B61FB6903F480339A
:10147C00002B13D0144B5B685B0C03F0010307F1DA
:10148C002802134413F8283CBB617B690F4A02FB0A
:10149C0003F2BB69B2FBF3F37B6204E07B690C4A99
:1014AC0002FB03F37B627B6A3B6202E0074B3B620D
:1014BC0000BF3B6A18462837BD4690BC704700BF3A
:1014CC00381E0008481E00080010024000127A0066
:1014DC0000093D0080B400AF024B1B681846BD46A6
:1014EC0080BC70470000002080B500AFFFF7F2FF12
:1014FC000146054B5B681B0A03F00703034AD35CE8
:10150C0021FA03F3184680BD001002405C1E00084F
:10151C0080B500AFFFF7DEFF0146054B5B68DB0AC9
:10152C0003F00703034AD35C21FA03F3184680BD8A
:10153C00001002405C1E000880B485B000AF7860DB
:10154C000A4B1B680A4AA2FB03235B0A7A6802FB5C
:10155C0003F3FB6000BFFB685A1EFA60002BF9D145
:10156C0000BF1437BD4680BC704700BF0000002090
:10157C00D34D621080B582B000AF78607B68002BD1
:10158C0001D101233FE07B6893F83D30DBB2002BA7
:10159C0006D17B68002283F83C207868FEF762FF56
:1015AC007B68242283F83D207B681B687A6812686C
:1015BC00D26822F40052DA60786800F04BFB7B684A
:1015CC001B687A681268126922F490421A617B686F
:1015DC001B687A681268526922F02A025A617B6889
:1015EC001B687A681268D26842F40052DA607B6831
:1015FC0000221A647B68202283F83D207B6820221D
:10160C0083F83E20002318460837BD4680BD0000F5
:10161C0080B58AB000AF78607B681B681B687B6202
:10162C007B681B68DB683B627B681B685B69FB61E2
:10163C000023BB6100237B617B6A03F00F03BB615A
:10164C00BB69002B0DD17B6A03F02003002B08D063
:10165C003B6A03F02003002B03D0786800F050FAAB
:10166C007CE1BB69002B00F0B180FB6903F0010346
:10167C00002B05D13B6A03F49073002B00F0A6807D
:10168C007B6A03F00103002B0AD03B6A03F48073DE
:10169C00002B05D07B681B6C43F001027B681A643D
:1016AC007B6A03F00403002B0AD0FB6903F00103EF
:1016BC00002B05D07B681B6C43F002027B681A641C
:1016CC007B6A03F00203002B0AD0FB6903F00103D1
:1016DC00002B05D07B681B6C43F004027B681A64FA
:1016EC007B6A03F00803002B0FD03B6A03F0200346
:1016FC00002B04D1FB6903F00103002B05D07B68A0
:10170C001B6C43F008027B681A647B681B6C002B13
:10171C0000F01F817B6A03F02003002B07D03B6A8B
:10172C0003F02003002B02D0786800F0E9F97B6805
:10173C001B685B6903F04003002B14BF01230023DB
:10174C00DBB27B617B681B6C03F00803002B02D1BE
:10175C007B69002B31D0786800F02CF97B681B6812
:10176C005B6903F04003002B23D07B681B687A680D
:10177C001268526922F040025A617B689B6B002B05
:10178C0013D07B689B6B774A5A637B689B6B1846BC
:10179C00FFF7CCF80346002B16D07B689B6B5B6B7A
:1017AC007A68926B104698470EE0786800F0EEF875
:1017BC000AE0786800F0EAF806E0786800F0E6F8ED
:1017CC007B6800221A64C4E000BFC2E07B681B6B1C
:1017DC00012B40F0A1807B6A03F01003002B00F07A
:1017EC009B803B6A03F01003002B00F095800023D4
:1017FC00FB607B681B681B68FB607B681B685B6815
:10180C00FB60FB687B681B685B6903F04003002B83
:10181C004ED07B689B6B1B685B687B827B8A002B42
:10182C0000F099807B689B8D7A8A9A4280F0938035
:10183C007B687A8ADA857B689B6B9B69202B2BD023
:10184C007B681B687A681268D26822F48072DA604E
:10185C007B681B687A681268526922F001025A612F
:10186C007B681B687A681268526922F040025A61E0
:10187C007B68202283F83E207B6800221A637B68F9
:10188C001B687A681268D26822F01002DA607B68F2
:10189C009B6B1846FFF70FF87B689A8D7B68DB8D86
:1018AC009BB2D31A9BB21946786800F078F852E0D4
:1018BC007B689A8D7B68DB8D9BB2D31A3B827B68ED
:1018CC00DB8D9BB2002B48D03B8A002B45D07B682C
:1018DC001B687A681268D26822F49072DA607B68AE
:1018EC001B687A681268526922F001025A617B689F
:1018FC00202283F83E207B6800221A637B681B68D9
:10190C007A681268D26822F01002DA603B8A1946B3
:10191C00786800F044F820E07B6A03F08003002B29
:10192C0008D03B6A03F08003002B03D0786800F0EA
:10193C0081F813E07B6A03F04003002B0ED03B6A66
:10194C0003F04003002B09D0786800F0C1F800BF09
:10195C0004E000BF02E000BF00E000BF2837BD4636
:10196C0080BD00BF191A000880B483B000AF786046
:10197C0000BF0C37BD4680BC704780B483B000AF4D
:10198C00786000BF0C37BD4680BC704780B483B014
:10199C0000AF786000BF0C37BD4680BC704780B488
:1019AC0083B000AF78600B467B8000BF0C37BD4620
:1019BC0080BC704780B483B000AF78607B681B68D4
:1019CC007A681268D26822F49072DA607B681B68BD
:1019DC007A681268526922F001025A617B681B6BAB
:1019EC00012B07D17B681B687A681268D26822F0D9
:1019FC001002DA607B68202283F83E207B6800228C
:101A0C001A6300BF0C37BD4680BC704780B584B0EC
:101A1C0000AF78607B685B6AFB60FB680022DA854C
:101A2C00FB680022DA84F868FFF7B0FF00BF1037BC
:101A3C00BD4680BD80B485B000AF78607B6893F8FC
:101A4C003D30DBB2212B3DD17B689B68B3F5805FC9
:101A5C0013D17B681B69002B0FD17B681B6AFB6061
:101A6C007B681B68FA681288C2F308025A607B68AC
:101A7C001B6A9A1C7B681A6208E07B681A687B6890
:101A8C001B6A581C796808621B7853607B68DB8C76
:101A9C009BB2013B9BB27A681946D184002B0FD1C3
:101AAC007B681B687A681268D26822F08002DA6060
:101ABC007B681B687A681268D26842F04002DA6070
:101ACC00002300E0022318461437BD4680BC704743
:101ADC0080B582B000AF78607B681B687A6812684A
:101AEC00D26822F04002DA607B68202283F83D2025
:101AFC007868FFF739FF002318460837BD4680BDCC
:101B0C0080B586B000AF78607B6893F83E30DBB26E
:101B1C00222B40F099807B689B68B3F5805F17D1CE
:101B2C007B681B69002B13D100237B617B689B6A4C
:101B3C003B617B681B685B689BB2C3F308039AB27A
:101B4C003B691A807B689B6A9A1C7B689A6226E0C8
:101B5C007B689B6A7B6100233B617B689B68B3F568
:101B6C00805F07D07B689B68002B0AD17B681B6960
:101B7C00002B06D17B681B685B68DAB27B691A7034
:101B8C0008E07B681B685B68DBB203F07F03DAB2AA
:101B9C007B691A707B689B6A5A1C7B689A627B68AB
:101BAC00DB8D9BB2013B9BB27A681946D185002B29
:101BBC0048D17B681B687A681268D26822F02002D0
:101BCC00DA607B681B687A681268D26822F48072CB
:101BDC00DA607B681B687A681268526922F001022D
:101BEC005A617B68202283F83E207B681B6B012B9B
:101BFC0023D17B6800221A637B681B687A681268A1
:101C0C00D26822F01002DA607B681B681B6803F054
:101C1C001003102B0AD10023FB607B681B681B6828
:101C2C00FB607B681B685B68FB60FB687B689B8D5B
:101C3C0019467868FFF7B3FE02E07868FFF79DFE5F
:101C4C00002302E0002300E0022318461837BD46AB
:101C5C0080BD000090B585B000AF78607B681B68D4
:101C6C007A681268126922F440517A68D2680A4381
:101C7C001A617B689A687B681B691A437B685B698D
:101C8C001343BB607B681A687B681B68DB6823F4B2
:101C9C00B05323F00C03B9680B43D3607B681B680B
:101CAC007A681268526922F440717A6892690A4320
:101CBC005A617B681B682C4A934203D1FFF728FCBE
:101CCC00F86002E0FFF710FCF8607B681968FA68AE
:101CDC0013469B0013449A001A447B685B689B0074
:101CEC00B2FBF3F3214AA2FB03235B091801FA6848
:101CFC0013469B0013449A001A447B685B689B0054
:101D0C00B2FBF3F2194BA3FB02435B09642404FB03
:101D1C0003F3D31A1B013233144AA2FB03235B09CE
:101D2C0003F0F0031844FA6813469B0013449A001E
:101D3C001A447B685B689B00B2FBF3F20B4BA3FB72
:101D4C0002435B09642404FB03F3D31A1B013233F3
:101D5C00064AA2FB03235B0903F00F0303448B60C9
:101D6C0000BF1437BD4690BD003801401F85EB51B4
:101D7C000C480D490D4A002302E0D458C4500433DA
:101D8C00C4188C42F9D30A4A0A4C002301E01360B0
:101D9C000432A242FBD3FEF7F9FB00F00FF8FEF77A
:101DAC0013FA7047000000200C0000206C1E000885
:101DBC000C00002074000020FEE7000070B5002528
:101DCC000C4E0D4CA41BA410A54209D100F022F816
:101DDC0000250A4E0A4CA41BA410A54205D170BDC7
:101DEC0056F8253098470135EEE756F825309847D8
:101DFC000135F2E7641E0008641E0008641E00082A
:101E0C00681E000803460244934200D1704703F851
:101E1C00011BF9E7F8B500BFF8BC08BC9E4670473B
:0C1E2C00F8B500BFF8BC08BC9E4670472B
:101E380002030405060708090A0B0C0D0E0F101003
:101E4800010200000000000000000000010203047D
:0C1E580006070809000000000102030456
:041E64003101000840
:041E68000D01000860
:0C1E6C000024F400100000000100000041
:0400000508001D7D55
:00000001FF
